:020000040800F2
:10000000600600206D0100087501000877010008F6
:10001000790100087B0100087D0100080000000054
:100020000000000000000000000000007F01000848
:10003000810100080000000083010008850100081C
:100040008701000887010008870100088701000870
:100050008701000887010008870100088701000860
:100060008701000887010008870100088701000850
:100070008701000887010008870100088701000840
:100080008701000887010008870100088701000830
:100090008701000887010008870100088701000820
:1000A0008701000887010008870100088701000810
:1000B0008701000887010008870100088701000800
:1000C00087010008870100088701000887010008F0
:1000D00087010008870100088701000887010008E0
:1000E00087010008870100088701000800F002F876
:1000F00000F02CF80AA090E8000C82448344AAF196
:100100000107DA4501D100F021F8AFF2090EBAE893
:100110000F0013F0010F18BFFB1A43F0010318473B
:10012000A8010000B80100000023002400250026DB
:10013000103A28BF78C1FBD8520728BF30C148BF4A
:100140000B6070471FB51FBD10B510BD00F031F832
:100150001146FFF7F7FF00F0B0F800F04FF803B4D6
:10016000FFF7F2FF03BC00F053F800000948804796
:1001700009480047FEE7FEE7FEE7FEE7FEE7FEE789
:10018000FEE7FEE7FEE7FEE704480549054A064BA1
:1001900070470000A1020008ED0000086000002088
:1001A0006006002060020020600200207047704757
:1001B0007047754600F028F8AE460500694653467C
:1001C00020F00700854618B020B5FFF7DDFFBDE839
:1001D00020404FF000064FF000074FF000084FF0AE
:1001E000000B21F00701AC46ACE8C009ACE8C0093F
:1001F000ACE8C009ACE8C0098D4670470446AFF3CF
:1002000000802046FFF7ABFF004870470000002049
:1002100001491820ABBEFEE726000200704700002F
:1002200010B50548006880F0080003490860C82040
:1002300000F037F810BD00000C0C01401548806933
:1002400040F00100134988611348406820F0E060E5
:10025000114948600846406840F0007048600D4809
:10026000806940F008000B4988610C48006820F460
:1002700070400A4908600846006840F44050086031
:1002800006480C30006840F0080004490C31086052
:10029000704700000010024000000140000C0140C7
:1002A0007047014606E040F2A46200E0521E002AB8
:1002B000FCDC491E0029F6DC7047FFF7BFFF01E0B8
:1002C000FFF7AEFFFCE70000D802000800000020A6
:0802D00060060000280100088F
:04000005080000ED02
:00000001FF
