:020000040800F2
:10000000680600208901000891010008930100089A
:100010009501000897010008990100080000000000
:100020000000000000000000000000009B0100082C
:100030009D010008000000009F010008A1010008C8
:10004000A3010008A3010008A3010008A301000800
:10005000A3010008A3010008A3010008A3010008F0
:10006000A3010008A3010008A3010008A3010008E0
:10007000A3010008A3010008A3010008A3010008D0
:10008000A3010008A3010008A3010008A3010008C0
:10009000A3010008A3010008A3010008A3010008B0
:1000A000A3010008A3010008A3010008A3010008A0
:1000B000A3010008A3010008A3010008A301000890
:1000C000A3010008A3010008A3010008A301000880
:1000D000A3010008A3010008A3010008A301000870
:1000E000A3010008A3010008A301000800F002F822
:1000F00000F03AF80AA090E8000C82448344AAF188
:100100000107DA4501D100F02FF8AFF2090EBAE885
:100110000F0013F0010F18BFFB1A43F0010318473B
:10012000F803000018040000103A24BF78C878C112
:10013000FAD8520724BF30C830C144BF04680C60ED
:10014000704700000023002400250026103A28BF35
:1001500078C1FBD8520728BF30C148BF0B60704739
:100160001FB51FBD10B510BD00F031F81146FFF7E7
:10017000F7FF00F0B7F900F04FF803B4FFF7F2FF14
:1001800003BC00F053F800000948804709480047C5
:10019000FEE7FEE7FEE7FEE7FEE7FEE7FEE7FEE737
:1001A000FEE7FEE704480549054A064B7047000094
:1001B0001D040008ED00000868000020680600200B
:1001C000680200206802002070477047704775463B
:1001D00000F028F8AE4605006946534620F00700B7
:1001E000854618B020B5FFF7DDFFBDE820404FF091
:1001F00000064FF000074FF000084FF0000B21F011
:100200000701AC46ACE8C009ACE8C009ACE8C009DD
:10021000ACE8C0098D4670470446AFF30080204625
:10022000FFF7ABFF00487047040000200149182089
:10023000ABBEFEE726000200704700004FF0E02151
:10024000096921F004014FF0E0221161C21700EBAF
:100250005272C2F3C702074B1A701946097801EBB4
:100260004102C2EBC1114FF6FF7202EAC101024A1C
:100270001180704700000020020000200C4909880E
:1002800041434FF0E0225161002191610121116150
:1002900000BF4FF0E021096901F480310029F8D056
:1002A00000214FF0E0221161114689699161704788
:1002B0000200002010B50548006880F008000349DE
:1002C00008606420FFF7DAFF10BD00000C0C01404D
:1002D0001548806940F0010013498861134840685F
:1002E00020F0E060114948600846406840F0007026
:1002F00048600D48806940F008000B4988610C484F
:10030000006820F470400A4908600846006840F41C
:100310004050086006480C30006840F0080004496E
:100320000C310860704700000010024000000140DE
:10033000000C014010B500F001F810BD0CB5002014
:10034000019000903348006840F4803031490860E3
:1003500000BF3048006800F4003000900198401C55
:100360000190009818B90198B0F5A06FF1D1294813
:10037000006800F4003010B10120009001E000207E
:1003800000900098012843D12348006840F01000F5
:10039000214908600846006820F00300086008460C
:1003A000006840F0020008601A4840681949486037
:1003B0000846406848600846406840F480604860ED
:1003C0000846406820F47C1048600846406840F4C5
:1003D000E81048600846006840F08070086000BF80
:1003E0000C48006800F000700028F9D00948406807
:1003F00020F00300074948600846406840F00200CA
:10040000486000BF0348406800F00C000828F9D19C
:100410000CBD0000001002400020024010B513483F
:10042000006840F001001149086008464068104922
:1004300008400E494860084600680E4908400B49CC
:1004400008600846006820F480200860084640687C
:1004500020F4FE0048604FF41F008860FFF76AFF39
:100460004FF000600449086010BD00000010024019
:100470000000FFF8FFFFF6FE08ED00E00C48806981
:1004800040F008000A4988610A48006820F47000BA
:10049000084908600846006840F400000860054804
:1004A0000C30006840F0200002490C3108607047B1
:1004B00000100240000C014010B509480068C0F36C
:1004C000401058B90A20FFF7D9FE00BF0448006861
:1004D000C0F340100028F9D0012010BD0020FCE737
:1004E000080C0140FFF7F4FEFFF7C8FF4820FFF7B4
:1004F000A5FE0EE0FFF7E0FF48B10648006840F0B7
:100500000800044908606420FFF7B8FE01E0FFF727
:10051000D1FEEFE70C0C0140380500080000002078
:1005200004000000280100083C0500080400002029
:0C05300064060000440100080000000008
:04000005080000ED02
:00000001FF
