:020000040800F2
:100000006807002091010008990100089B01000881
:100010009D0100089F010008A101000800000000E8
:10002000000000000000000000000000A301000824
:10003000A501000800000000A7010008A9010008B0
:10004000AB010008AB010008AB010008AB010008E0
:10005000AB010008AB010008AB010008AB010008D0
:10006000AB010008AB010008AB010008AB010008C0
:10007000AB010008AB010008AB010008AB010008B0
:10008000AB010008AB010008AB010008AB010008A0
:10009000AB010008AB010008AB010008AB01000890
:1000A000AB010008AB010008AB010008AB01000880
:1000B000AB010008AB010008AB010008AB01000870
:1000C000AB010008AB010008AB010008AB01000860
:1000D000AB010008D50C0008AB010008AB0100081B
:1000E000AB010008AB010008AB01000800F002F80A
:1000F00000F03FF80AA090E8000C82448344AAF183
:100100000107DA4501D100F034F8AFF2090EBAE880
:100110000F0013F0010F18BFFB1A43F0010318473B
:100120007813000098130000103A24BF78C878C1F3
:10013000FAD8520724BF30C830C144BF04680C60ED
:10014000704700000023002400250026103A28BF35
:1001500078C1FBD8520728BF30C148BF0B60704739
:10016000642900F07780002070471FB51FBD10B5CF
:1001700010BD00F037F91146FFF7F7FF00F06CFEF5
:1001800000F055F903B4FFF7F2FF03BC00F052FE94
:100190000948804709480047FEE7FEE7FEE7FEE71B
:1001A000FEE7FEE7FEE7FEE7FEE7FEE70448054957
:1001B000054A064B70470000750C0008ED0000086A
:1001C0006801002068070020680300206803002001
:1001D000704700000FB4044910B503AA029800F05C
:1001E000D3F810BC5DF814FB2C0000202DE9F04181
:1001F0000E460446002020622046E168884730B35E
:10020000252805D0D4E901219047206A401CF2E757
:10021000E168204600278847050018D0A5F1410075
:10022000192802D820354FF4006732462946204667
:100230002760FFF795FF40B1012804D0F61D26F096
:1002400007060836D8E7361DD6E72846DAE7206ADB
:10025000BDE8F0812DE9F0410646002410687529BB
:10026000314616A510D0AFF30080002802DA4042D4
:1002700013A507E031688A0701D512A502E04907F6
:1002800004D511A5012401E0AFF3008000210A226A
:1002900006F1240709E0B0FBF2FCB0FBF2F302FB2D
:1002A0001C00303078541846491C0028F3D12346EE
:1002B0002A463046BDE8F04100F00CB800000000CE
:1002C0002D0000002B000000200000007047704748
:1002D000704770472DE9F0470D469946924604460F
:1002E00000F124080168880604D5E06921F01001B6
:1002F000216000E00120A84201DD471B00E000274B
:10030000A1697A1902EB0900081AA0612078C006D9
:1003100002D42046AFF30080002608E0D4E9012192
:100320001AF806009047206A401C761C20624E4551
:10033000F4DB2078C0060AD52046AFF3008006E043
:10034000D4E9012130209047206A401C2062381EE9
:10035000A7F10107F4DC07E0D4E9012118F8050052
:100360009047206A401C2062281EA5F10105F3DC9D
:100370002046AFF300802078000602D50220BDE8B9
:10038000F0870120FBE70000074B70B50D467B446A
:1003900000F011F80446284600F020F810B14FF0A4
:1003A000FF3070BD204670BDAB0A000001694A1CD9
:1003B00002610878704700B58FB0CDE901310021A6
:1003C000059105497944CDE9031011466846FFF7C8
:1003D0000DFF0FB000BD0000E5FFFFFF007B00F048
:1003E00080007047754600F029F8AE460500694662
:1003F000534620F00700854618B020B5FFF7D6FE1B
:10040000BDE820404FF000064FF000074FF0000815
:100410004FF0000B21F00701AC46ACE8C009ACE896
:10042000C009ACE8C009ACE8C0098D467047044675
:10043000AFF300802046FFF7A5FE0000004870479C
:10044000040100204448806940F00400424988616A
:100450004248006820F0F000404908603E4880694A
:1004600040F400703C4988610846C06840F4007060
:10047000C8600846C06820F40070C860084640683C
:1004800020F4404048600846406840F4004048601E
:10049000334800683349084031490860084600681D
:1004A00020F480700860081D006820F00200091D1B
:1004B00008600846006820F460200860084600686C
:1004C00040F4602008600846006840F4801008602E
:1004D0000846006820F40060086021482830006861
:1004E00020F470001E492831086008460068086042
:1004F0001B480C30006820F0030019490C310860DB
:100500000846006840F0380008601548001D006883
:1005100040F001001249091D08600846006840F0DB
:100520000800086000BF0E48001D006800F00800C9
:100530000028F8D10A48001D006840F0040008496E
:10054000091D086000BF0648001D006800F0040097
:100550000028F8D170470000001002400008014058
:1005600004240140FFFFF0004FF0E021096921F071
:1005700004014FF0E0221161C21700EB5272C2F386
:10058000C702074B1A701946097801EB4102C2EB0A
:10059000C1114FF6FF7202EAC101024A1180704791
:1005A000280000202A0000200C49098841434FF010
:1005B000E0225161002191610121116100BF4FF0E2
:1005C000E021096901F480310029F8D000214FF0C1
:1005D000E022116111468969916170472A0000206B
:1005E0000C49097841434FF0E022516100219161AB
:1005F0000121116100BF4FF0E021096901F4803150
:100600000029F8D000214FF0E022116111468969DC
:10061000916170472800002010B50548006880F0FF
:100620000800034908606420FFF7BEFF10BD00000A
:100630000C0C01401548806940F0010013498861A5
:100640001348406820F0E06011494860084640685F
:1006500040F0007048600D48806940F008000B4988
:1006600088610C48006820F470400A490860084618
:10067000006840F44050086006480C30006840F0C4
:10068000080004490C310860704700000010024067
:1006900000000140000C01402DE9F041074688466A
:1006A00014461D46284600F033F8C5F1040007FA49
:1006B00000F60F20284100EA0800064306F00F0666
:1006C000E21704EBD2625211920002F1E022D2F85A
:1006D00000212146E31704EBD3635B11A4EB431C19
:1006E000012303FA0CF31A432046E31704EBD36308
:1006F0005B119B0003F1E023C3F800210348005D78
:1007000040EA061001490855BDE8F08100E400E028
:100710000146072323EA01021202054B18684FF62F
:10072000FF031840034B18431043014B18607047F8
:100730000CED00E00000FA051CB505220C49302044
:1007400000F0ECF805226946102000F05DF8002466
:1007500009E01DF804000649095D884201D0002027
:100760001CBD601CC4B2052CF3DB0120F8E70000BF
:100770003200002070B505460C462048006820F481
:1007800000501E490860FF21E12000F0EBF8FF2136
:10079000E22000F0E7F805221949302000F0BEF809
:1007A000052218492A2000F0B9F80121212000F083
:1007B000D9F80121222000F0D5F81A21242000F0D8
:1007C000D1F82946252000F0CDF82021312000F075
:1007D000C9F80F21262000F0C5F8012C02D100F045
:1007E00031FA03E0022C01D100F0A0F903480068BF
:1007F00040F400500149086070BD00000C0C01403D
:1008000032000020370000202DE9F04107460D4658
:1008100016460E48006820F010000C490860384663
:1008200000F03EF98046002405E0002000F038F991
:100830002855601CC4B2B442F7DB0448006840F09D
:100840001000024908604046BDE8F0810C080140F4
:1008500070B504460A48006820F010000849086096
:10086000204600F01DF9002000F01AF90546044862
:10087000006840F0100002490860284670BD000082
:100880000C0801402DE9F04105460E4600271F489F
:10089000006820F400501D49086032462946A02017
:1008A00000F03CF81948006840F40050174908600F
:1008B00006E0781CC7B2C82F02D10020BDE8F08145
:1008C0001248001F006800F400401049091F08602A
:1008D0000028EED10720FFF7BBFF044621460CA0FD
:1008E000FFF778FC2146272000F03CF804F01000C8
:1008F00030B104F0010018B1FF21002000F032F8FF
:100900002146272000F02EF80120D7E70C0C0140EB
:100910007374617475733D2025640A002DE9F041FC
:1009200007460D4616460E48006820F010000C4998
:100930000860384600F0B4F88046002404E0285DE2
:1009400000F0AEF8601CC4B2B442F8DB04480068A2
:1009500040F01000024908604046BDE8F081000008
:100960000C08014070B505460C460A48006820F0A6
:10097000100008490860284600F092F80646204614
:1009800000F08EF80348006840F01000014908604C
:10099000304670BD0C0801403A48806940F00400C0
:1009A000384988610846806940F008008861084637
:1009B000806940F4805088613348006880B23249D1
:1009C000086008460068314908432F4908602E48EE
:1009D0000C30006840F0E0002B490C3108602C48D6
:1009E00000682C4908402A490860084600682A49DE
:1009F00008432749086026480830006840F4004052
:100A000023490831086020480C30006840F010008D
:100A10001D490C3108602148008820F480601F497E
:100A200008800846008840F4007008800846008866
:100A300040F4807008800846008840F00400088078
:100A40000846008820F4006008800846008820F0EE
:100A5000020008800846008820F00100088008464F
:100A6000008840F0100008800846008820F08000D0
:100A70000880072008820846008840F0400008806F
:100A800070470000001002400008014000009399E8
:100A9000040C0140FFFF0F0F0000308000300140C8
:100AA00070B5054600240AE0601C84B24EF6602052
:100AB000844204DB11A0FFF78DFB002070BD1648B7
:100AC000008900F002000028EED013488581002440
:100AD0000AE0601C84B24FF6FE70844204DB0FA073
:100AE000FFF778FB0020E9E70B48008900F00100E0
:100AF0000028EED008488089C0B2DFE7535049B7DC
:100B0000A2CBCDC7F8B2BBCEAABFD5A3ACCEDEB7C1
:100B1000A8B7A2CBCD0A000000300140535049BD18
:100B2000D3CAD5B3ACCAB10A0000000010B50A4858
:100B3000006820F40050084908600F212020FFF7CA
:100B400011FF0548006840F40050034908609620F2
:100B5000FFF746FD10BD00000C0C014010B500F081
:100B600001F810BD0CB500200190009033480068DA
:100B700040F480303149086000BF3048006800F41C
:100B8000003000900198401C0190009818B901981D
:100B9000B0F5A06FF1D12948006800F4003010B121
:100BA0000120009001E0002000900098012843D12E
:100BB0002348006840F0100021490860084600689A
:100BC00020F0030008600846006840F0020008605A
:100BD0001A48406819494860084640684860084615
:100BE000406840F4806048600846406820F47C100B
:100BF00048600846406840F4E810486008460068CD
:100C000040F08070086000BF0C48006800F0007081
:100C10000028F9D00948406820F0030007494860DF
:100C20000846406840F00200486000BF0348406842
:100C300000F00C000828F9D10CBD000000100240A3
:100C40000020024010B50A48006820F4005008490E
:100C500008600E212020FFF785FE0548006840F45B
:100C60000050034908609620FFF7BAFC10BD000051
:100C70000C0C014010B51348006840F00100114908
:100C8000086008464068104908400E494860084618
:100C900000680E4908400B4908600846006820F4C7
:100CA000802008600846406820F4FE0048604FF449
:100CB0001F008860FFF752FF4FF000600449086092
:100CC00010BD0000001002400000FFF8FFFFF6FE1C
:100CD00008ED00E01D49098801F0200111B31B490E
:100CE000091D0988C8B21A49098801F40041C9B927
:100CF0001749098801F4804161B10A2803D0002115
:100D0000134A118020E01249098841F40041104A39
:100D1000118019E00D2806D10D49098841F4804160
:100D20000B4A118010E00A490988C1F30D01094AF4
:100D3000505407490988491C054A11801146098801
:100D4000C72901DD002111807047000000380140F3
:100D5000300000203C0000202DE9F05F05460E46E3
:100D6000300100F039FA81462E4905FB01F000F010
:100D700033FA8246494600F04DF90746384600F0FE
:100D80000BFA84B2204600F027FA8346394600F079
:100D900003FB82464FF0834100F032FA814600F0B7
:100DA000FBF980464FF6FF7000EA041404EB0800DC
:100DB00084B21D48806940F004001B4988610846E0
:100DC000806940F4804088611848006820F47F60A2
:100DD000164908600846006840F40B600860124835
:100DE000C06840F480401049C8600846C06820F4DC
:100DF0008040C8600E480480001D008842F20C014B
:100E000008430B49091D08800846008840F020006F
:100E100008800223252203210846FFF73DFCBDE898
:100E2000F09F000040420F00001002400408014003
:100E300008380140014600BF7047000000BF054A66
:100E4000128802F04002002AF9D0C2B2014B1B1DE9
:100E50001A80704700380140FFF7ECFB4820FFF78D
:100E600083FB6420FFF7A0FB0220FFF751FC4FF447
:100E7000E1314820FFF770FFFFF7E4FAFFF78CFD40
:100E800001212820FFF776FC11A0FFF7A3F9FFF757
:100E900053FC18B915A0FFF79DF902E017A0FFF762
:100EA00099F96420FFF780FB10E020211B48FFF731
:100EB000E9FC18B11AA0FFF78DF902E01EA0FFF7B8
:100EC00089F9FFF7A9FB0220FFF76EFBEDE70000B1
:100ED0004E524632344C3031B3F5CABCBBAFCDEACA
:100EE000B3C9A3A1A3A1A3A10A0000004E52463298
:100EF000344C3031D2ECB3A30A0000004E524632DB
:100F0000344C3031D1E9D6A4CEDECEF3A3ACBFC988
:100F1000D5FDB3A3CAB9D3C30A000000080000205E
:100F20004E524632344C3031B7A2CBCDCAFDBEDD75
:100F3000B3C9B9A60A0000004E524632344C3031D3
:100F4000B7A2CBCDCAFDBEDDCAA7B0DC0A00000047
:100F500090EA010F48BF81F0004100F12E82421A51
:100F60003CBF801A89184FEAD0524FF07F4C1CEAE0
:100F7000410FA2EBD15318BF9CEA026F00F03B80F7
:100F80004FF0004C4CEA00204CEA012121FA03FC0E
:100F900010EB0C0C1ED202F1FF325FEA1C2040EB7A
:100FA000C25038BF70471CF07F0F4FEA400C18BF8B
:100FB000BCF17F4F38BF7047C3F12003994008BF91
:100FC00020F00100BCF17F4F38BF7047A0F1C04056
:100FD00000F0DDB94FEA3C00000A40EBC25028BFE8
:100FE0001CF0FF0F4FEA400CE6D018BFBCF17F4F5A
:100FF00038BF7047EAE79CEA026F05D010EA5C0F41
:1010000008BF00F00040704710B500F07AF900BF4B
:1010100064FBBE3E4FF47F0C1CEAD0121EBF1CEADC
:10102000D11392EA0C0F93EA0C0F00F0858090EA3E
:10103000010F48BF42F4807240F4000C41F40000FC
:101040002CF07F4120F07F4000B58142A2EB0302EB
:101050000FF2081CACEB504EC0F100009EF800E00F
:101060004FEA4E0E00FB0EFC38BF49004FEA2C1C25
:1010700002F5FA020CFB0EF34FEACE1E4FEA112CDA
:101080004FEAC1210EEB635E42EB22420EFB0CFCE9
:101090004FEA1C5300FB03114FEA112C4FEA0131B8
:1010A0000EFB0CFC4FEADC4C00FB0C11C14228BFCC
:1010B00009184CEB03335DF804EB10EB410143EBF3
:1010C000C250B2F57C0F38BF704729D512F0F00F2F
:1010D0001CBF00F1C04000F00040704700818283D7
:1010E0008485868788898B8C8D8E8F919293959637
:1010F00097999A9C9D9FA0A2A3A5A7A8AAACAEB0C1
:10110000B2B3B5B7B9BCBEC0C2C5C7C9CCCED1D4C5
:10111000D7D9DCDFE2E6E9ECF0F3F7FAFE000000F5
:101120004FEA400C0CF1807CBCF17E4F28BF704729
:10113000B0F1C04000F02BB990EA010F0CEAD113D6
:1011400048BF42F48072624538BF634507D213F44A
:101150007F0F16D080EA010000F00040704710B504
:1011600000F0CFF8097EFC3E00F005B880EA0100EF
:1011700000F00040704780EA010000F0004000F0FD
:1011800006B912F47F0F04BF0248704780EA0100DD
:1011900000F0FDB80000C07FC10DD1F19E0206DB5A
:1011A0004FEA002343F0004323FA02F07047004265
:1011B00007D54FEA4001B1F1FE4F02D24FF00000D7
:1011C000704710B500F09DF84992248000207047C8
:1011D0006FEA200070470000B0FA80F310FA03F2C3
:1011E000C3F19D030AD0D90501EB1220530638BF85
:1011F000704700F1010008BF20F0010070470000B7
:101200004FF47F0C1CEAD0121EBF1CEAD11392EAE5
:101210000C0F93EA0C0F00F0478090EA010F48BFD3
:1012200042F480724FF0004C4CEA00204CEA01215D
:1012300002EB0302A0FB0113A2F50002002918BF74
:1012400043F001035B0028BF4FEA330342EB224225
:101250005FEA132C4CEBC2502EBFBCEB436FB2F5D0
:101260007C0F70474FEA036CBCF1004F08BF20F0C1
:101270000100B2F57C0F38BF70470BD582F0FF023A
:1012800012F5803FC8BF704700F1C040D8BF00F0E2
:101290000040704700F5000C5FEA4C0C48BF7047F7
:1012A000B0F1C04000F073B890EA010F0CEAD1131E
:1012B00048BF42F48072624538BF634504D280EA79
:1012C000010000F00040704710B500F01AF800BFB0
:1012D0008900013E00F007B800F009B85FEA410C50
:1012E0005FEA1C6C08D080EA010000F050B85FEAA9
:1012F000400C5FEA1C6CF6D14FF00040A0F5800076
:1013000070470EF1020E2EF0030E5EF8044B2442DD
:1013100004D44FEA4102B2F17F4F11D84FEA4003A3
:10132000B3F17F4F0CD80ED14FEAD07CB2F17F4F92
:101330000CEB4C0C0CF1020C08BF4CEBD17C04E024
:101340004FF0080C01E04FEAD17C0CEB4C0324FA7F
:1013500003F404F00704B4F1040C06D20EEB840C81
:10136000BDE810404CF0010C6047DFE80CF00708C6
:1013700002024FF00040A0F5800010BD0846420078
:1013800018BFD2F1807288BF00F0004010BDFF216D
:1013900041EAD050C005704780F0004090EA010F4C
:1013A0007FF5DDAD81F0004100F007B890EA010F54
:1013B00048BF81F000413FF5D2AD421A04D882F017
:1013C0000042A0EB020011444FEAD0524FF07F4C94
:1013D0001CEA410FA2EBD15318BF9CEA026F4AD01E
:1013E0004FF0004C4CEA00204CEA012121FA03FCAA
:1013F000B0EB0C0C0FD412F0FE0F36D05FEA4C00AD
:101400001DD5001240EBC25038BF70471CF03F0F93
:1014100018BF70470BE0A2F101025FEA1C2040EB0D
:10142000C25038BF70471CF07F0F18BF7047C3F120
:101430002003994014BF401E20F00100704780082F
:101440004FEA122308BF7047B0FA80FCA2EB0C02EF
:10145000CCF1280C60FA0CF093EA122F04BF00EBD9
:10146000C25070474FEAC3707047130A5FEADC103E
:1014700008BF7047F6E79CEA026F04D010EA5C0FE1
:1014800008BF0020704710B5FFF73BFF40DFF63E76
:1014900081F0004070470000B814000800000020F0
:1014A0003C00000028010008F41400083C00002063
:1014B0002C070000440100080000000000000000AC
:1014C0000501060606000000000000000000000004
:1014D000000000000000000000000000000000000C
:1014E0000000000000000000000020431010212038
:0414F0004310102174
:04000005080000ED02
:00000001FF
