:020000040800F2
:1000000098070020A1010008A9010008AB01000821
:10001000AD010008AF010008B101000800000000B8
:10002000000000000000000000000000B301000814
:10003000B501000800000000B7010008B901000880
:10004000BB010008BB010008BB010008BB010008A0
:10005000BB010008BB010008BB010008BB01000890
:10006000BB010008BB010008BB010008BB01000880
:10007000BB010008BB010008BB010008BB01000870
:10008000BB010008BB010008BB010008BB01000860
:10009000BB010008BB010008BB010008BB01000850
:1000A000BB010008BB010008BB010008BB01000840
:1000B000BB010008BB010008BB010008BB01000830
:1000C000BB010008BB010008BB010008BB01000820
:1000D000BB01000871210008BB010008BB0100083A
:1000E000BB010008BB010008BB01000800F002F8DA
:1000F00000F047F80AA090E8000C82448344AAF17B
:100100000107DA4501D100F03CF8AFF2090EBAE878
:100110000F0013F0010F18BFFB1A43F0010318473B
:10012000743C0000943C0000103A24BF78C878C1A9
:10013000FAD8520724BF30C830C144BF04680C60ED
:10014000704700000023002400250026103A28BF35
:1001500078C1FBD8520728BF30C148BF0B60704739
:10016000662903F0DA84002070471FB500F022FBF7
:1001700004000020002102F0BFFCE0601FBD10B5AC
:1001800010BD00F033FC1146FFF7EFFF02F03CFC1E
:1001900000F051FC03B4FFF7F2FF03BC02F01BF9BF
:1001A0000948804709480047FEE7FEE7FEE7FEE70B
:1001B000FEE7FEE7FEE7FEE7FEE7FEE70448054947
:1001C000054A064B7047000011210008ED000008A9
:1001D0009801002098070020980300209803002031
:1001E000704700000FB4044910B503AA029800F04C
:1001F000CFFA10BC5DF814FB0400002070B5044673
:1002000085690068C10601D5302600E02026C007B8
:1002100007D070BDD4E9012130469047206A401CC8
:1002200020626D1EF6D570BD70B5044685690078F4
:10023000C00707D170BDD4E9012120209047206A72
:10024000401C20626D1EF6D570BD2DE9F0474FF0C1
:10025000000A89460446C0F820A02046E168884785
:10026000002876D0252806D0D4E901219047206ABD
:10027000401C2062F1E7E168204600258847C4F869
:100280001CA006460027C4F818A02A2E09D0304624
:1002900002F09AF838B304EB8708303EC8F81860CB
:1002A00019E059F8041B204604EB87029161E168CC
:1002B0008847012F064618D1E069002820DA25F08A
:1002C00020051DE0D8F8180000EB800006EB400088
:1002D0003038C8F818002046E1688847064602F022
:1002E00073F80028EED1012F0AD02E2E08D1204617
:1002F000E16888477F1C0646022F45F02005C4DBD5
:10030000A069002803DA404245F00105A061E80732
:1003100001D025F01005B6B1A6F14100192802D888
:10032000203645F400654A463146204625604D4654
:10033000FFF716FF58B1012806D0ED1D25F0070084
:1003400000F1080989E704E005F1040985E7304672
:100350008AE7206ABDE8F0877047704770477047AA
:1003600010B500F02BFA006810BD10B5044600F07F
:1003700025FA046010BD70472DE9FF4F0C461E465C
:100380004FF0FF378BB0D2E90001DDF860800A90B2
:100390008A46C1F30A5505B93D46002108464FF08B
:1003A0000000BAF1000F00F4400005DA00EB800015
:1003B0004FF4400101EA50004FEA9059B9F1010FA2
:1003C00000DDB9460A9850EA4A000ED044F61050B3
:1003D000A5F2FF3545432F14B8F1000F1ED075422A
:1003E000291E1EDDC9F100021CE0B8F1010F4FF01B
:1003F000000001D0302103E0F24305E02154401C0D
:10040000B042FBDB30460022002121540B99C1F899
:100410000880C1E900200FB0BDE8F08FBD1B6D1C46
:10042000DEE74A4600DA694206A800F069FA06AB40
:1004300093E8070003AB83E8070050460A9900F0F1
:1004400041FB8DE80700A0F500501F38009003988D
:10045000002D09DD42F21F014A46084403A903901A
:10046000684600F0A0FD08E0A0F500504A461F389D
:1004700003A90390684600F0AAFD8DE80700000478
:10048000000C03D04FF0FF30410800E01046B8F1F7
:10049000000F03D00022009215461EE0751E05D401
:1004A00000F090F9303262556D1EF9D5B346012245
:1004B000084302D000227F1C04E02078302801D1BC
:1004C00000227F1E002A099786D01DE0112D07DA31
:1004D00000F078F9303262556D1C50EA0102F5D116
:1004E000084302D00098C8B10EE00021681E05E064
:1004F000235C625C63542254401E491C8142F7DB3A
:10050000AB46A81B401E0990002004F80B000B9876
:10051000099AC0F80880C0E9002B7CE711264FF04B
:10052000000859E72DE9F04F88460446D21D22F015
:10053000070191B0D1E90001CDE90A0101F0C8FE3F
:1005400002460B98C00F01D02D2007E020688107DC
:1005500001D52B2002E0202101EAC000032A0990E6
:1005600001D0072A05DB03464146204600F088F902
:100570000BE12078800601D5E06900E00620B8F1A3
:10058000650F814606D0B8F1660F18D0B8F1670F35
:1005900070D131E00020B9F1110F009001DB11237F
:1005A00001E009F101030AAA01A90CA8FFF7E4FE82
:1005B000DDE90C70002609F10105834647E00120C2
:1005C0004B4600904FF000470AAA01A90CA8FFF77C
:1005D000D3FEDDE90DB00C995D46002610B909F196
:1005E00001000D18B9EB050003D4C0F1FF3609F185
:1005F0000105A5EB09002BE0B9F1010F01DA4FF07D
:1006000001090020B9F1110F0090484601DD1123C6
:1006100000E003460AAA01A90CA8FFF7ADFEDDE938
:100620000C704D4600268346207800070AD4AB455F
:1006300000DA5D4601A8012D04DD411911F8011C05
:10064000302907D04F4502DA17F1040F04DA0120F0
:1006500082460FE06D1EEEE7002F02DCED1B3E44EC
:1006600003E0781CA84200DD7D1CB81B00F1010AE4
:100670004FF000472078000703D4AA4501DB4FF074
:10068000FF3A0021B7F1004F0DF143088DF84310F8
:1006900024D002202B23002F01DA7F422D230A21B0
:1006A000021EA0F1010000DC5FB197FBF1FC97FB9B
:1006B000F1F201FB1C7C17460CF1300C08F801CD5F
:1006C000EEE7A8F1010003702188090501D5452155
:1006D00000E06521A0F1010800F8011C09980FA9AC
:1006E000A1EB0807FF1D00B10120411901EBEA70E1
:1006F000A1693844081A401EA0612078C00602D4BF
:100700002046FFF77BFD099828B1D4E901219047E5
:10071000206A401C20622078C00622D52046FFF7C0
:100720006DFD1EE0002E04DBB34502DD01A8805DF7
:1007300000E03020D4E901219047206A401C20626B
:10074000761CAAF101005FEA000A0AD100F032F833
:10075000C0680168405CD4E901219047206A401CD0
:100760002062281EA5F10105DCDC07E0D4E90121A7
:1007700018F8010B9047206A401C2062381EA7F130
:100780000107F3DC2046FFF74FFD032011B043E6DD
:10079000074B70B50D467B4400F05FF804462846D1
:1007A00000F01CF910B14FF0FF3070BD204670BD55
:1007B000532200000048704758010020004870474D
:1007C0003801002030B5B0F10A024FEA900E71F105
:1007D00000034EEA817EB0EB0E0061EB91014FEA1F
:1007E000101E4EEA017E10EB0E0041EB11114FEA94
:1007F000102E4EEA016E10EB0E0041EB11214FEA74
:10080000104E4EEA014E10EB0E0041EB1141401824
:1008100041F100014FEAD00040EA41704FEAD101B6
:1008200010EB80054FEA810444EA907444EB010424
:100830006D1944EB0404521BA3414FF0000348BF61
:100840000A3200D530BD401C41F1000130BD00002E
:1008500001694A1C02610878704700B58FB0CDE984
:1008600001310021059105497944CDE90310114674
:100870006846FFF7EAFC0FB000BD0000E5FFFFFF90
:100880002DE9F0411F46044603260168072A01F4BA
:10089000006004DB08B116A505E016A503E008B169
:1008A00015A500E015A521F010002060A069C01E6C
:1008B000A0610FB1401EA0612046FFF79FFC4FB121
:1008C000D4E9012138469047206A401C2062C01CB0
:1008D000206206E0206AFAE7D4E9012115F8010B4D
:1008E0009047761EF8D22046FFF79EFCBDE8F081C7
:1008F0004E414E006E616E00494E4600696E6600C4
:100900002DE9F047814616468AB0334878440DC831
:100910008DE80D0030487844801C03AC0DC884E895
:100920000D0041F69B300844372190FBF1F290FB1B
:10093000F1F5A5F1800501FB12041B3C02D56442D0
:10094000012000E00020DFF890A080460027FA4454
:10095000AAF1BE0A0DE0E00709D03246684607EB6F
:1009600047010AEB810100F032FB8DE807006410BB
:100970007F1C002CEFD1184F7F44AC3F18E0E807F4
:1009800014D007EB04100DF1180A90E80E008AE865
:100990000E00C068F04201D198190890324606A9AD
:1009A00003A800F014FB03AB83E807006D10641C80
:1009B000002DE4D132466946B8F1000F03A802D0F9
:1009C00000F0F1FA01E000F002FBC9E90001C9F80A
:1009D00008200AB0BDE8F0876C340000007B00F00E
:1009E0008000704700487047380100207546FFF7C7
:1009F000F9FFAE4605006946534620F007008546DC
:100A000018B020B5FFF7DAFBBDE820404FF0000634
:100A10004FF000074FF000084FF0000B21F00701E6
:100A2000AC46ACE8C009ACE8C009ACE8C009ACE829
:100A3000C0098D4670470446AFF300802046FFF79B
:100A4000A9FB00004FF0013C50F8042B51F8043B87
:100A50009A4221D1A2EB0C03934313EACC1317D192
:100A600050F8042B51F8043B9A4215D1A2EB0C0329
:100A7000934313EACC130BD150F8042B51F8043BE9
:100A80009A4209D1A2EB0C03934313EACC13DBD0B7
:100A90004FF00000704700BFD01A01BAB1FA81F1DF
:100AA00001F0180122FA01F0CB40C1F12001DBB2C4
:100AB000C0B2C01A2CFA01F3D11A914311EAC31142
:100AC000E6D170475FEA400C08BF91F0000F4FEA93
:100AD0008C234FEAC12243EA51514FEA1C5018BF00
:100AE00000F5F0404FEA300018BF41F000415FEAE6
:100AF0006C5C00F02980BCF1FF3F08BF40F08040F3
:100B00007047130C06BF12044FF0100C4FF0000C8E
:100B1000130E04BF12020CF1080C130F04BF1201D4
:100B20000CF1040C930F04BF92000CF1020CD30FD4
:100B300004BF52000CF1010C11464FF00002A0F16D
:100B40001F00A0EB0C00704711F0004F08BF70476A
:100B500031F000413FF4D5AF0B0C06BF09044FF054
:100B6000100C4FF0000C0B0E04BF09020CF1080C26
:100B70000B0F04BF09010CF1040C8B0F04BF89009B
:100B80000CF1020CCB0F04BF49000CF1010CCCF1AD
:100B90002003A0EB0C0022FA03F302FA0CF241EA64
:100BA000030100F10100704720F07F4C80EA030050
:100BB00023F07F47ACEB070303F57C5300F00040C4
:100BC00003F1FF032DE980494FEA154B09B44FEAC1
:100BD000144325EA0B4E24EA03480FF2042606EBE1
:100BE000132749083E785FEA320203FB0667C7F520
:100BF000000707FB06F64FEA54374FEAD64606F1E0
:100C0000020607FB066CCCF1005C4FEA1C472CEA9D
:100C1000074C07FB06F40CFB06F504EB15464FEA00
:100C2000961634BF00204FF000404FEAD13706FB44
:100C300007FC4FEA1C4C0CFB0BF7D21B03FB0CF719
:100C400061EB07010CFB0EF7B0EB074072EB1742AC
:100C50000CFB08F734BFA2EB0742B2EB074261EB93
:100C600017414FEA0C444FEA910706FB07FC4FEA95
:100C70001C4C0CFB0BF7B0EBC74072EB573203FB7D
:100C80000CF734BFA2EBC742B2EBC74261EB57315E
:100C90000CFB0EF7B0EBC70072EB57720CFB08F7BA
:100CA00034BFA2EBC702B2EBC70261EB5771039FDF
:100CB0004FEA816141EA921104EBCC044FEAD1374B
:100CC0004FEA826206FB07FC42EA90124FEA80601C
:100CD0004FEA1C4C0CFB0BF7D21B03FB0CF761EB30
:100CE00007010CFB0EF7B0EB074072EB17420CFB51
:100CF00008F734BFA2EB0742B2EB074261EB1741A2
:100D00004FEA8C554FEA910704EB9C2406FB07FC45
:100D10004FEA1C4C0CFB0BF7B0EBC74072EB5732A1
:100D200003FB0CF734BFA2EBC742B2EBC74261EB47
:100D300057310CFB0EF7B0EBC70072EB57720CFB90
:100D400008F734BFA2EBC702B2EBC70261EB5771E1
:100D500015EB4C254FEA816141EA92114FEA82621C
:100D60004FEAD13742EA901206FB07FC44F1000437
:100D70004FEA80604FEA1C4C0CFB0BF7D21B03FBC5
:100D80000CF761EB07010CFB0EF7B0EB074072EBC1
:100D900017420CFB08F734BFA2EB0742B2EB074245
:100DA00061EB174115EB1C154FEA813141EA924185
:100DB0004FEA823242EA90424FEA80304FEA0C76A4
:100DC00044F1000448EA03434EEA0B484FF0000E9A
:100DD000B2EB080C71EB030724BF624639464EEBB9
:100DE0000E0E4FF0000B0018524149414BEB0B0B1C
:100DF000B2EB080C71EB03077BF1000B24BF6246DA
:100E000039464EEB0E0E4FF0000B0018524149418F
:100E10004BEB0B0BB2EB080C71EB03077BF1000BF8
:100E200024BF624639464EEB0E0E51EA020718BF48
:100E300046F0010616EB0E7655F1000254F1000162
:100E400003D5BDE88901BDE80088BDE88901BDE89A
:100E50000048B619524141EB0101A3F1010370476B
:100E600080807F7E7D7C7B7A7978777676757473E7
:100E7000727171706F6E6E6D6C6C6B6A6A696868A6
:100E8000676666656464636362616160605F5F5E3C
:100E90005E5D5D5C5C5B5B5A5A59595858575756B2
:100EA0005655555554545353525252515150505017
:100EB0004F4F4F4E4E4D4D4D4C4C4C4B4B4B4A4A69
:100EC0004A494949484848474747474646464545AD
:100ED00045444444444343434342424242414141E6
:100EE000002B26D4770021D01CB54FEA370703B476
:100EF0004FF010004FF010014FF000000FBCBDE8A4
:100F000010400BF1010BBBF1010F08BF5FEA17079F
:100F100022BF12F1010211F101014FF0004143F132
:100F2000000300F0004043EA00007047F9D357087F
:100F3000DAE746EA064613F1400F4FEA16461FDD90
:100F400013F1200FDFBF16430A46002120335B4216
:100F5000C8D0C3F1200746EA064602FA07F74FEA6F
:100F6000164646EA0706C3F1200722FA03F201FA01
:100F700007F721FA03F14FF0000342EA0702B1E755
:100F800046EA020646EA06464FEA164646EA0106E1
:100F9000BCBF46EA0646360C4FF000034FF0000295
:100FA0004FF000019EE72DE9C048934630B491E828
:100FB000380007C831EA400C48BF34EA430C03D577
:100FC000FFF7F2FDFFF78CFFF0BCBDE800882DE9CC
:100FD000C048934630B491E8380007C810F0804FFD
:100FE00008BF13F0804F03D100F005F8FFF778FF3A
:100FF000F0BCBDE8008820F07F4780EA030023F0C2
:101000007F4C07EB0C03A3F57C5300F00040A3F1E9
:10101000FE0392F0000F00F0B38095F0000F00F097
:1010200077802DE901494FEA11404FEA144621EA41
:10103000004800FB06FC24EA064708FB06F607FB0F
:1010400008F800FB07F718EB06484CEB164C4FEA84
:10105000124B18EB07484FEA15464CEB174022EAB3
:101060000B4E0BFB06FC25EA06470EFB06F607FBBC
:101070000EFE0BFB07F71EEB064E4CEB164C4FF02B
:1010800000061EEB074E4CEB174B18EB0B0840F11C
:10109000000018EB0E0B58EB000840F100008F1A0F
:1010A0004FF000013CBFC943661B14BFB5EB040CF5
:1010B00000213CBFC943F61B4FEA17444EEA8E0E8F
:1010C00027EA04454FEA1C4704FB07622CEA074C59
:1010D00005FB07F70CFB05F604FB0CFC16EB0746BB
:1010E00042EB174216EB0C4642EB1C421BEB06068A
:1010F00058EB0202414146EA9E0601D5BDE801894E
:10110000B619524141EB0101A3F10103BDE8018988
:101110004FEA14454FEA114724EA054621EA074CF5
:1011200005FB07F406FB07F70CFB06F105FB0CFCBF
:1011300011EB074144EB17444FEA124711EB0C4106
:1011400044EB1C4422EA074C05FB07F206FB07F7B9
:101150000CFB06F605FB0CFC16EB074642EB1742B0
:1011600016EB0C4642EB1C456A1854F1000148BFCF
:101170007047B619524141EB0101A3F101037047D9
:1011800095F0000F37D04FEA11424FEA144721EA99
:10119000024624EA074C02FB07F106FB07F70CFBAB
:1011A00006F402FB0CFC14EB074441EB17414FEA39
:1011B000154714EB0C4441EB1C4125EA074C02FB9C
:1011C00007F506FB07F70CFB06F602FB0CFC16EB1B
:1011D000074645EB174516EB0C4645EB1C4212192A
:1011E00051F1000148BF7047B619524141EB01016E
:1011F000A3F1010370474FEA14454FEA114724EA6F
:10120000054621EA074C05FB07F106FB07F70CFB37
:1012100006F24FF0000605FB0CFC12EB074241EB17
:10122000174112EB0C4251EB1C4148BF704792181A
:1012300041EB0101A3F101037047000010B5114813
:10124000006820F010000F490860012000F082F9CA
:101250000D48006820F001000B490860012000F0F3
:1012600079F90848006840F010000649086001203C
:1012700000F070F90348006820F010000149086090
:1012800010BD00000C0801400C0C0140164880699C
:1012900040F00C00144988611448006820F4702064
:1012A000124908600846006840F4403008600F4862
:1012B0000C30006840F010000C490C3108600C48FC
:1012C000006820F00F000A4908600846006840F0F6
:1012D0000700086006480C30006840F0010004492F
:1012E0000C31086070470000001002400008014007
:1012F000000C014010B50F48006820F010000D49A7
:1013000008600D48006840F001000B4908600120AA
:1013100000F020F90748006840F010000549086017
:10132000012000F017F90348006820F0100001497F
:10133000086010BD0C0801400C0C014070B505465A
:10134000002400261AE01248006820F0100010491E
:101350000860012000F0FEF80D48006840F0100021
:101360000B4908606006040E0A48006808B144F0A2
:101370000104012000F0EEF8701CC6B2082EE2DB7A
:1013800015B9FFF7B7FF01E0FFF758FF204670BD22
:101390000C0801400081214270B50446002518E088
:1013A0001048006820F010000E490860012000F08D
:1013B000D1F8E0090C4908606006040E094800688D
:1013C00040F0100007490860012000F0C3F8681CD5
:1013D000C5B2082DE4DB0348006820F01000014985
:1013E000086070BD0C0801408081214211480068EE
:1013F00040F010000F4908600F48006840F00100FD
:101400000D4908600D48006808B9002070470A4877
:10141000006820F00100084908600848006808B129
:101420000020F3E70348006820F01000014908603D
:101430000120EBE70C0801400C0C01400081214227
:101440000C48006820F010000A4908600A4800684B
:1014500020F00100084908600648006840F01000CC
:10146000044908600448006840F00100024908602F
:10147000704700000C0801400C0C014000B5002230
:101480001348006820F010001149086011480068F6
:1014900040F001000F4908600D48006840F010005E
:1014A0000B49086007E0501CC2B2C82A03DDFFF7F1
:1014B000C7FF002000BD084800680028F3D1044899
:1014C000006820F01000024908600120F2E70000E7
:1014D0000C0801400C0C0140008121424FF0E0213A
:1014E000096921F004014FF0E0221161C21700EBFD
:1014F0005272C2F3C702074B1A701946097801EB02
:101500004102C2EBC1114FF6FF7202EAC101024A69
:101510001180704700000020020000200C4909885B
:1015200041434FF0E022516100219161012111619D
:1015300000BF4FF0E021096901F480310029F8D0A3
:1015400000214FF0E02211611146896991617047D5
:10155000020000200C49097841434FF0E02251611C
:10156000002191610121116100BF4FF0E021096963
:1015700001F480310029F8D000214FF0E022116100
:101580001146896991617047000000202DE9F04FF4
:1015900089B0412000F04EF9824602F047F98146B9
:1015A0008E4902F061F8044601F0D0FF07468C4AEC
:1015B0008C4B01F0E9FA054601F0B4FA8A4908605B
:1015C0003B2000F037F9044602F030F98749086003
:1015D0003D2000F02FF9044602F028F98449086004
:1015E0003F2000F027F9044602F020F98149086005
:1015F000432000F01FF9044602F018F97E49086004
:10160000452000F017F9044602F010F97B49086004
:10161000472000F00FF9044602F008F97849086005
:101620004FF08C417148006802F01EF8754908605F
:101630004FF08C416E48006802F016F8724908605D
:101640004FF08C416B48006802F00EF86F4908605B
:101650006948006801F07AFF06464FF066326C4B2D
:1016600001F042FB044601F05DFA6A4908606348F4
:10167000006801F06BFF06464FF06632644B01F0E4
:1016800033FB044601F04EFA634908605C48006889
:1016900001F05CFF06464FF066325D4B01F024FB23
:1016A000044601F03FFA5D4908600846006801F011
:1016B0004DFF07465A4A5B4B01F06EFC054601F0B0
:1016C00031FA04465448006801F040FF0746544A86
:1016D000544B01F061FC054601F024FA81464D4867
:1016E000006801F033FF07464D4A4E4B01F054FCB1
:1016F000054601F017FA82464448006842490968E5
:10170000CDE900103F48224649460368504600F0A4
:101710002DF938480168006802F0B4F802903448A6
:101720000168006802F0AEF80190029901F03AFFFA
:10173000039001F00BFF824601F0B8F9CDE90601F4
:101740002A48006801F002FFCDE90401DDE9062323
:1017500001F0CAFA804600F079FF06464FF00052C9
:10176000314B01F019FC81F00041044601F0DAF937
:101770002E4908601F480168006802F083F883461C
:101780001A480168006802F07DF85946019001F09E
:1017900009FF824601F0DAFECDE9020101F086F987
:1017A000CDE904011248006801F0D0FE8046DDE971
:1017B000042301F099FACDE9060100F047FF06463F
:1017C0004FF00052184B01F0E7FB044601F0AAF974
:1017D0001749086009B0BDE8F08F00000000AA4377
:1017E000A4703D0AD7434240640000202800002036
:1017F0002C000020300000203400002038000020A1
:101800003C00002040000020440000204800002050
:10181000666630404C00002050000020540000203C
:101820005F40D42247DF913FDCA54C406800002098
:101830006C00002070B50446204600F00BF8054609
:10184000611CC8B200F006F8064606EB052000B29F
:1018500070BD000070B50446FFF7C8FD20B913A0A5
:10186000FEF7C0FC002070BDD020FFF795FDFFF70C
:1018700005FE30B912A0FEF7B5FCFFF7E1FD002030
:10188000F1E72046FFF788FDFFF7F8FDFFF7AEFD13
:10189000D120FFF781FDFFF7F1FD0020FFF74EFD9E
:1018A0000546FFF7CDFD2846DDE70000494943B670
:1018B000C1C8A1C6F4B6AFCAA7B0DC0A00000000D8
:1018C000494943B6C1C8A1CEDED3A6B4F00A000090
:1018D00070B505460C46FFF789FD20B913A0FEF749
:1018E00081FC002070BDD020FFF756FDFFF7C6FD3C
:1018F00030B913A0FEF776FCFFF7A2FD0020F1E758
:101900002846FFF749FDFFF7B9FD2046FFF744FDE4
:10191000FFF7B4FD30B910A0FEF764FCFFF790FDAF
:101920000020DFE7FFF78CFD0120DBE7494943D0CA
:10193000B4C8EBC6F4B6AFCAA7B0DC0A000000001A
:10194000494943D0B4C8EBB4D3BBFAB5D8D6B7CE67
:10195000DED3A6B4F00A0000494943D0B4C8EBCAAC
:10196000FDBEDDCEDED3A6B4F00A00000FB597B001
:101970001D99084601F086FF0A901C99084601F05F
:1019800081FF08901A99084601F07CFF079008999A
:1019900001F008FE09900A9901F004FE0B9001F095
:1019A000D5FDCDE90C0101F081F8CDE90E0101F082
:1019B000B9F8169016991A9801F056FE1A901699D1
:1019C0001C9801F051FE1C9016991D9801F04CFED8
:1019D0001D90FE480168FE48006801F053FF0E901C
:1019E000FC480168FC48006801F04CFF0D900E991E
:1019F00002F01EF84FF080410F9001F043FF159068
:101A0000F4480168F148006801F03CFF0E90F2488C
:101A10000168EF48006801F035FF0D900E9901F064
:101A2000C1FD4FF080410F9001F02CFF1490E94868
:101A30000168006801F026FF0F90E4480168006823
:101A400001F020FF0D90E4480168006801F01AFFE2
:101A50000B90DF480168006801F014FF0A900B99B1
:101A600001F0E6FF0C900D9901F0E2FF0E900F9946
:101A700001F098FD139014991D9801F003FF0F9049
:101A800013991C9801F0FEFE0E900F9901F0D0FF03
:101A9000129013991A9801F0F5FE0F9015991D9860
:101AA00001F0F0FE0E900F9901F0C2FF1190159910
:101AB0001C9801F0E7FE0F9014991A9801F0E2FECD
:101AC0000E900F9901F0B4FF1090C449129801F0E4
:101AD000D9FE0F90C24801680F9801F063FDC0491C
:101AE0000860BE49119801F0CDFE0F90BD48016815
:101AF0000F9801F057FDBB490860B849109801F0F4
:101B0000C1FE0F90B84801680F9801F04BFDB6492F
:101B10000860B648129901F0B5FE0E90179901F0D1
:101B200041FD0F90AE4801680F9801F03BFD179002
:101B3000AE48119901F0A6FE0E90189901F032FD01
:101B40000F90A84801680F9801F02CFD1890A74845
:101B5000109901F097FE0E90199901F023FD0F9056
:101B6000A14801680F9801F01DFD19909948199935
:101B7000006801F087FE0D9094481899006801F004
:101B800081FE0B909448006880F0004009901799FE
:101B900001F078FE0A900B9901F04AFF0C900D9924
:101BA00001F046FF92490E9001F06CFE0F908848BC
:101BB00001680F9801F0F6FC85490860854818997E
:101BC000006801F05FFE0D9080481999006801F0EF
:101BD00059FE0B907E480168179801F053FE0A9059
:101BE0000B9901F0DFFC0C900D9901F021FF804969
:101BF0000E9001F047FE0F90774801680F9801F0B2
:101C0000D1FC7549086073480168179801F03AFEE5
:101C10000D9071481999006801F034FE0B906C48E2
:101C20001899006801F02EFE0A900B9901F000FF50
:101C30000C900D9901F0B6FC6D490E9001F022FE5A
:101C40000F90624801680F9801F0ACFC5F49086092
:101C500008460168179801F015FE0D905E48189926
:101C6000006801F00FFE0B9059481999006801F0C7
:101C700009FE0A900B9901F095FC0C900D9901F06A
:101C8000D7FE5B490E9001F0FDFD0F9051480168B1
:101C90000F9801F087FC4F4908600846016800680A
:101CA00001F0F0FD0A9049480168006801F0EAFD82
:101CB000089049480168006801F0E4FD0690444836
:101CC0000168006801F0DEFD0590069901F06AFCEC
:101CD0000790089901F066FC09900A9901F062FCEE
:101CE0000B9001F033FCCDE90C0100F0DFFECDE9F3
:101CF0000E0100F017FF169035481699006801F0A4
:101D0000B3FC3349086034481699006801F0ACFC14
:101D1000314908602D481699006801F0A5FC2B494F
:101D200008602C481699006801F09EFC294908605B
:101D3000084601682848006801F0A4FD0790234880
:101D400001682348006801F09DFD0690079901F0A5
:101D50006FFE4FF08041089001F094FD099001F072
:101D6000F5FBCDE90A0100F039FB4FF00052214BA1
:101D7000CDE90C0101F010F9CDE90E0100F0D2FE21
:101D80001D490860134801681048006801F07AFD99
:101D90000790114801680E48006801F073FD069035
:101DA000079901F0FFFB4FF08041089001F06AFDB8
:101DB000099001F0CBFBCDE90A0100F00FFB4FF0D9
:101DC00000520C4BCDE90C0118E00000140000207B
:101DD0000C00002018000020100000206F12833A31
:101DE0001C00002020000020240000200000A04053
:101DF0000AD7A33BDCA54C405800002001F0CCF8EA
:101E0000CDE90E0100F08EFE2B4908602B480168D9
:101E1000006801F037FD069029480168006801F06C
:101E200031FD049027480168006801F02BFD029005
:101E300025480168006801F025FD0190029901F034
:101E4000B1FB0390049901F0F3FD0590069901F0B0
:101E5000EFFD079001F07AFBCDE90A011748016810
:101E60001748006801F00EFD0590164801681648F5
:101E7000006801F007FD0490059901F093FB4FF015
:101E80008041069001F0FEFC079001F05FFBCDE978
:101E90000801DDE90A2300F0E9FC0C4A0C4BCDE90E
:101EA0000C0101F079F8CDE90E0100F03BFE094983
:101EB00008601BB000BD00005C000020180000207E
:101EC00014000020100000200C000020E3A9471A95
:101ED000DCA54C406000002010B580216B20FFF78E
:101EE000F7FC6420FFF71AFB00216B20FFF7F0FCE2
:101EF00018211B20FFF7ECFC08211C20FFF7E8FC51
:101F000001211920FFF7E4FC00211A20FFF7E0FC73
:101F100000216A20FFF7DCFC00213820FFF7D8FC05
:101F200000212320FFF7D4FC7520FFF793FC6828DD
:101F300004D00BA0FEF756F9002010BD0DA0FEF74F
:101F400051F901216B20FFF7C3FC00216C20FFF742
:101F5000BFFC07211920FFF7BBFC0120EDE70000C3
:101F60004D505536303530D1E9D6A4CAA7B0DC0A79
:101F7000000000004D505536303530D1E9D6A4B3BD
:101F8000C9B9A60A000000002DE9F04107468846BD
:101F900014461D46284600F033F8C5F1040007FA40
:101FA00000F60F20284100EA0800064306F00F065D
:101FB000E21704EBD2625211920002F1E022D2F851
:101FC00000212146E31704EBD3635B11A4EB431C10
:101FD000012303FA0CF31A432046E31704EBD363FF
:101FE0005B119B0003F1E023C3F800210348005D6F
:101FF00040EA061001490855BDE8F08100E400E020
:102000000146072323EA01021202054B18684FF626
:10201000FF031840034B18431043014B18607047EF
:102020000CED00E00000FA0510B500F001F810BD5D
:102030000CB50020019000903348006840F48030D7
:102040003149086000BF3048006800F4003000905B
:102050000198401C0190009818B90198B0F5A06F44
:10206000F1D12948006800F4003010B1012000903F
:1020700001E0002000900098012843D12348006827
:1020800040F01000214908600846006820F0030075
:1020900008600846006840F0020008601A4840687E
:1020A000194948600846406848600846406840F45E
:1020B000806048600846406820F47C10486008460C
:1020C000406840F4E81048600846006840F08070BE
:1020D000086000BF0C48006800F000700028F9D0CC
:1020E0000948406820F003000749486008464068F6
:1020F00040F00200486000BF0348406800F00C0058
:102100000828F9D10CBD0000001002400020024058
:1021100010B51348006840F00100114908600846F6
:102120004068104908400E494860084600680E495A
:1021300008400B4908600846006820F480200860C9
:102140000846406820F4FE0048604FF41F00886095
:10215000FFF76AFF4FF000600449086010BD0000FF
:10216000001002400000FFF8FFFFF6FE08ED00E05F
:102170001D49098801F0200111B31B49091D098877
:10218000C8B21A49098801F40041C9B91749098838
:1021900001F4804161B10A2803D00021134A118063
:1021A00020E01249098841F40041104A118019E0E9
:1021B0000D2806D10D49098841F480410B4A118050
:1021C00010E00A490988C1F30D01094A5054074932
:1021D0000988491C054A118011460988C72901DD73
:1021E00000211180704700000038014008000020E5
:1021F000700000202DE9F05F05460E46300101F029
:102200002DFB81462E4905FB01F001F027FB82469C
:10221000494601F029FA0746384601F0E7FA84B248
:10222000204601F01BFB8346394601F0F7FB82464E
:102230004FF0834101F026FB814601F0D7FA80463A
:102240004FF6FF7000EA041404EB080084B21D4846
:10225000806940F004001B4988610846806940F4A9
:10226000804088611848006820F47F601649086043
:102270000846006840F40B6008601248C06840F4EB
:1022800080401049C8600846C06820F48040C8609B
:102290000E480480001D008842F20C0108430B49DF
:1022A000091D08800846008840F0200008800223AD
:1022B000252203210846FFF767FEBDE8F09F0000D6
:1022C00040420F000010024004080140083801405D
:1022D000490050EAC12018BF04204A0D18BF40F041
:1022E000010040F2FF72B2EB515F08BF40F0020004
:1022F000012808BF052070472DE9F0414F1E00EB73
:10230000C7010446D1E9000115461E4637F0060212
:102310000DD02A46334600F03FFE7F1E04EBC70374
:10232000D3E9002300F030FC37F00602F1D1022F90
:1023300025D0042F13D0062F18BFBDE8F0812A4600
:10234000334600F029FED4E90A2300F01DFC2A469A
:10235000334600F021FED4E9082300F015FC2A469C
:10236000334600F019FED4E9062300F00DFC2A469E
:10237000334600F011FED4E9042300F005FC2A46A0
:10238000334600F009FED4E9022300F0FDFB2A46A3
:10239000334600F001FED4E90023BDE8F04100F02F
:1023A000F3BB012201F0EDBB00F0EEBB00221346AF
:1023B0001046114600F098BC024A0020110701F0B7
:1023C000E0BB000001FDFFFF30380A2801D20120E8
:1023D000704700207047014600BF70472DE9F04D5F
:1023E0008D4F21F0004A86B005460C46BA452ADBDF
:1023F000AAEB070028430AD08848824501DC1AD19D
:10240000CDB106B02846BDE8F04DFFF7CABF844AFB
:10241000844B284600F0C0FD07460E46824A834B97
:102420002846214600F0B8FD06B03A463346BDE8DE
:10243000F04D00F0A9BB0120FDF797FF06B0BDE805
:10244000F04DFFF7B3BF7A48824542DABAF1795FBF
:102450000BDA2846FFF73CFF042808BFFFF7ACFF64
:10246000284606B02146BDE8F08D2A460B461046A8
:1024700000F092FD834602466E480E460B4606214A
:102480007844FFF739FF5A46334600F085FD804611
:1024900069488A465A46334604217844FFF72CFFA0
:1024A0005A46334600F078FD00223B4600F06CFBB4
:1024B00002460B464046514600F016FC2A4623468B
:1024C00000F06AFD06B02A462346BDE8F04D00F054
:1024D0005BBB284624F0004100223D463B4600F00D
:1024E00059FE4FF0FF3201F04CFB064602465348BE
:1024F0000F460B4606217844FFF7FEFE32463B4668
:1025000000F04AFDCDE900014D4832463B4604212A
:102510007844FFF7F1FE32463B4600F03DFD0022D5
:102520002B4600F031FB834602913046394600F0DD
:10253000BDFA804643480D46504517DCDDE90001F1
:102540005A46029B00F0D0FB42462B4600F024FD89
:1025500042462B4600F018FB012201F012FB304AE4
:10256000304B00F009FF304A304B4CE04FF0000A8E
:1025700052460B46404600F007FBCDE90310524699
:102580002B461046194600F007FD32463B4600F048
:1025900001FEDDE9033200F0A7FB06460F46DDE948
:1025A00000015A46029B00F09FFB834600910122E6
:1025B0003046394601F0E5FA194A1A4B00F0EAFDB7
:1025C00006460F4601224046294601F0DAFA5A46ED
:1025D000009B00F0E1FC32463B4600F0CDFE064693
:1025E0000F4601225046294601F0CBFA0E4DDFF886
:1025F00058802A46434600F0CDFD32463B4600F067
:10260000C9FD2A46434600F0C5FD002CD8BF81F025
:10261000004106B0BDE8F08D0000F03F0000F07F03
:10262000075C143326A6913C182D4454FB21F93F36
:102630000000E03F8C170000A217000016170000F2
:102640002C1700003333EF3FFB21E93F2DE9F84F12
:1026500004460D4621F0004000917349814211DC8F
:102660007249884201DC06D12CB120462946BDE8DA
:10267000F84FFFF796BE6E48002DCCBF6D496E49EE
:10268000BDE8F88F6D49814211DD6D498142D8BFA7
:102690004FF0FF366DDD20462946FFF719FE04286E
:1026A00008BFFFF789FE20462946BDE8F88F654937
:1026B000654F25F00045814233DD6449814219DDD3
:1026C000002632464FF080432046294600F05CFA4F
:1026D00080468A4601222046294601F052FA00220D
:1026E0003B4600F049FE4246534600F0FDFA0446E0
:1026F0000D463EE001260022BA463B4620462946CA
:1027000000F042FA80460F460022534620462946F2
:1027100000F032FE42463B4600F0E6FA04460D4623
:1027200027E04B4981421BDDDFF828A10226002269
:1027300053462046294600F02FFC00223B4600F07D
:1027400023FA80460F46002253462046294600F0D1
:1027500013FE42463B4600F0C7FA04460D4608E029
:10276000032622462B4600203B4900F0BDFA0446D2
:102770000D4622462B461046194600F00DFC8B46AE
:10278000824602460B4600F007FC074602463348E5
:1027900088460B4606217844FFF7AEFD52465B465D
:1027A00000F0FAFB82462E488B463A464346052106
:1027B0007844FFF7A1FD3A46434600F0EDFB0246A0
:1027C0000B46002E504659460CDA00F0DDF9224641
:1027D0002B4600F0E1FB01B022462B46BDE8F04F4E
:1027E00000F0D8BC00F0D0F922462B4600F0D4FB14
:1027F0001C4A7A4402EBC603D3E9002300F0BCFD77
:1028000022462B4600F0B8FD174A7A4402EBC60375
:10281000D3E9002300F0BEFC009A002AB8BF81F083
:102820000041BDE8F88F0000000010440000F07F78
:10283000182D4454FB21F93FFB21F9BF0000DC3F78
:102840000000203E0000F33F0000F03F0000E63FA4
:10285000008003400000F83F0000F0BF2E1500008C
:10286000EC1400008A140000521400002DE9F04D11
:102870009446CCF1000423F000464CEA0404524F85
:1028800046EAD4749A46884621F00042BC4206D8F3
:10289000454240EA050442EAD474BC4204D9BDE88A
:1028A000F04D6246FFF780BDAAF14055A5F17F6566
:1028B00055EA0C040BD0022404EAAA74434DDFF855
:1028C00010E144EAD87452EA000B04D00CE0BDE8F1
:1028D000F04DFFF7BBBE002C14BF012CBDE8F08DFE
:1028E000022C30D0032C32D056EA0C0B0AD0BE4258
:1028F00020D1BA4209D126F0804622F080423346E8
:10290000114617E000291ADB25E0DFF8C8B0FB44C8
:10291000002C04BFDBE90001BDE8F08D012C02BFF3
:10292000DBE9000181F00041BDE8F08D022C0AD006
:10293000032C0CD0BA4212D1B8F1000F0BDA2348A5
:102940002549BDE8F08D28462449BDE8F08D28468C
:102950007146BDE8F08D1D482149BDE8F08D921B00
:1029600012153C2AC4BF19481D490EDCBAF1000FEC
:10297000BEBF12F13C0F0020014606DB624600F0AC
:10298000B3F921F00041FFF761FE002C08BFBDE85C
:10299000F08D012C04BF81F00041BDE8F08D114A9B
:1029A000114B022C07D000F0E7FC2A46BDE8F04DA1
:1029B0000A4B00F0E1BC00F0DFFC2A46BDE8F04D18
:1029C000064B00F0E7BB00000000F07F182D4454D8
:1029D000FB2109C0E6130000FB21F9BFFB210940E0
:1029E000FB21F93F075C143326A6A13C00BF054A32
:1029F000128802F04002002AF9D0C2B2014B1B1D1E
:102A00001A807047003801401FB54820FEF766FD68
:102A1000FEF73CFC0220FFF7F3FA4FF4E1314820C7
:102A2000FFF7E8FBFFF758FA6420FEF777FD21E097
:102A3000FEF7ACFD1048006800F088FD04460D4626
:102A40000E48006800F082FD06460F460C480068FC
:102A500000F07CFD804642460B460AA0CDE90067A7
:102A6000CDE90245FDF7BEFB0FA0FDF7BBFB0A2039
:102A7000FEF754FDDCE70000600000205C00002051
:102A800058000020726F6C6C3D253130662020208C
:102A900070697463683D2531306620202079617744
:102AA0003D25313066200A000A0000002DE9F04182
:102AB00006460F4600F07AFB04000D4618BF0120C1
:102AC000284320F00040C0F17F6000F1E040C00FDB
:102AD0000ED0301C18BF0120384320F00040C0F158
:102AE0007F6000F1E040C00F04BF0120FDF73DFC16
:102AF00020462946BDE8F08110B500290AD00878A3
:102B0000002807D005487844FDF79CFF002801D035
:102B1000002010BD0248784410BD0000AE12000035
:102B2000A612000021F00042A2F16052B2F5801F0F
:102B300001F0004328BFD2F17F6C0BD95FEA001C83
:102B400043EAC20242EB507018BF704728BF20F022
:102B500001007047B2F5801FBCBF184670474FEAAE
:102B6000410C1CF5001F02D2084600F052BF70B5A0
:102B700000F0BCFA00000089FFF7F6BF4FF00040FC
:102B8000A0F580007047000010B591EA030F48BF20
:102B900083F0004300F1F883841A71EB030C05D233
:102BA000121943EB0C03001B61EB0C01DFF824E16D
:102BB0004FEA1154A4EB135C1EEA430F18BF9EEAC0
:102BC000445F73D023EA0E03DCF1200E21EA0451A6
:102BD00043F4801332D322FA0CFE10EB0E0023FADA
:102BE0000CFE41EB0E01CCF1200E03FA0EFE10EBB1
:102BF0000E0051F10001B1F5801FCCF1200E32D250
:102C000001EB045112FA0EF2BDE8104058BF7047B4
:102C1000401C38BF5FEA420218BF7047002814BF4B
:102C200020F0010041F100014FEA410313F5001FBC
:102C300038BF7047A1F1C04100F0A6BA012A43EBAA
:102C40000302ACF1200CDCF11F0E32BF4FF0000E7E
:102C500023FA0CF310EB030041EB0451B4EB115FCA
:102C6000D0D0A1EB045101F5801149085FEA300092
:102C700001EB04510ED350F1000038BF12FA0EFEE2
:102C800008D1BDE81040C9E7401C38BF5FEA4202E6
:102C9000CAD1C3E7BDE810404FEA410313F5001F56
:102CA00038BF7047A1F1C04100F06EBA9EEA445FA0
:102CB00008D011EA5E0FBDE8104004BF01F00041EA
:102CC00000207047BDE8104070B500F00FFA00BF5B
:102CD00064FBBE3E0000E0FF02494FF0000000F040
:102CE0001EBF00BF0000F87F2DE9C04130B4DFF8FF
:102CF000A0C23CEA111418BF3CEA131400F0EC80A7
:102D000081EA03051CEA111444EAD57418BF1CEAD1
:102D1000131500F0C780A4EB05044FF0004545EA09
:102D2000C12145EAC32341EA505143EA525304F119
:102D30007F74994204F500344FEAC0204FEAC22262
:102D400008BF904200F09C804FEA13650FF24016D6
:102D5000765D4FEA134506FB05F7C7F1807706FB62
:102D600007F74FEAD737A7FB03687642C8F58038E4
:102D7000A7FB06CE38BFA8F1010807FB08E64FF015
:102D8000000EA6FB028CE6FB03CEDCF1000CCEF1BC
:102D9000004E38BFAEF1010EA6FB0C584FF00007F5
:102DA0004FF00005E6FB0E87A1FB08C6A0FB07CE8F
:102DB00016EB0E0645F10005E1FB076515F1E04E47
:102DC0007EBFA4F580345FEA46066D4116F18007A8
:102DD00045F100054FEA17274FEA066647EA0567FF
:102DE000A6F1DE46B6F1805F4FEA15251FD93846B9
:102DF00024F0010C05EBC471BCF1FE6F01EB0C116A
:102E000002D8F0BCBDE8008124425CBF01F5801E01
:102E10009EEAC47F02D4F0BCBDE80081244238D4CD
:102E2000F0BCA1F1C041BDE8004100F0ADB94FEAEE
:102E3000D22242EA43524FEAD323A7FB02864FEA4B
:102E4000D02040EA415007FB03661EEA0E0F4FEA0E
:102E5000D12105FB026658BFA6EB0056B6EB005623
:102E60004FEA520E4EEAC37E18EB0E0E56EB530E8F
:102E7000BDD518EB02085E417F1C55F10005B6E791
:102E80004FF480154FF000074FF000064FF0000898
:102E9000ADE7F0BC4FF0000001F1C04101F000418E
:102EA000BDE8008111EA0C1F0CEA131500D00CE0FC
:102EB00013EA0C1F00F025804FF00000F0BC81EAFF
:102EC000030101F00041BDE80081F0BCBDE8004114
:102ED00081EA030100F058B9F0BCBDE8004170B5CB
:102EE00000F004F9097EFC3E00F007B881EA030116
:102EF0004FF0000001F00041704781EA030100F04B
:102F000043B9F0BCBDE800414FF0000021497047D3
:102F1000FFFDFBF9F7F5F4F2F0EEEDEBE9E8E6E49E
:102F2000E3E1E0DEDDDBDAD8D7D5D4D3D1D0CFCD25
:102F3000CCCBCAC8C7C6C5C4C2C1C0BFBEBDBCBB5E
:102F4000BAB9B8B7B6B5B4B3B2B1B0AFAEADACAB59
:102F5000AAA9A8A8A7A6A5A4A3A3A2A1A09F9F9E33
:102F60009D9C9C9B9A9999989797969595949393E5
:102F7000929191908F8F8E8E8D8C8C8B8B8A89897C
:102F800088888787868585848483838282818180FF
:102F90000000FF070000F87FDFF848C170B51CEAA9
:102FA000111E1EBF1CEA13159EEA0C0F95EA0C0FAA
:102FB00000F06F8081EA030423EA4C134EEAD47ECA
:102FC00021EA4C1141F4801143F48013AE44A1FB7B
:102FD000024CA0FB0365AEF17F7E361955EB0C0564
:102FE000A1FB034C4CF10003A0FB021C16EB0C06EA
:102FF000654153F10003094218BF46F0010613F47E
:10300000007F0BD14FEA03314FEA0530340341EA28
:10301000155140EA16506FF003020AE04FEAC3214F
:103020004FEAC520F40241EA555140EA56506FF08C
:10303000020202EB2E4201EB025585EACE710AD064
:103040005FEA440C18BF24F0004450F1000041F145
:10305000000120EAD47040F2FE7C624500D270BDCF
:10306000A84214BF4FF080444FF04044002E08BFE8
:103070000024BEF1806FA8BFA1F1C041BDE870403F
:1030800080F282804FF0000001F1C04101F0004168
:1030900070479EEA0C0F0CEA131518BF95EA0C0F47
:1030A00006D04FF0000081EA030E0EF0004170BD23
:1030B00000F01CF88900013E00F007B800F009B8E4
:1030C0004FEA430C5FEA5C5C08D081EA030100F040
:1030D0005BB84FEA410C5FEA5C5CF6D14FF0000050
:1030E000014970470000FF070000F87F0EF1020E53
:1030F0002EF0030E5EF8046B364205D4012A43EB32
:10310000030515F5001F12D8012841EB010C1CF531
:10311000001F0CD80ED14FEAD17C15F5001F0CEB27
:103120004C0C0CF1020C08BF4CEBD37C04E04FF0CC
:10313000080C01E04FEAD37C0CEB4C0526FA05F6AF
:1031400006F00706B6F1040C06D20EEB860CBDE8BD
:1031500070404CF0010C6047DFE80CF0090B0202F4
:103160004FF000414FF00000A1F5002170BD19465D
:103170001046012851EB010418BFD4F5001484BF98
:10318000002001F0004170BD0808A0F500114FEAD1
:103190003101704791EA030F10B581F000413FF50E
:1031A000FBAC83F0004300F0EFB800002DE9F041E4
:1031B00001F5801CBCF5001FC0F2C3804FEA115C12
:1031C00021EA0C510CF1FD0C41F480115FEA5C0C1A
:1031D0000CF5C07C01D3400049413DA4890241EA7D
:1031E000905187028E0E0A0CA45D04FB04F602FBCC
:1031F00006F6C6F14046A4FB0662F60D46EA4226F4
:1032000006FB06F4A4FB01235242C3F1404338BF3E
:103210005B1EA6FB02420024E6FB0324D20B42EA1B
:103220004446A6FB0623A1FB02E2A3FB07E4A41885
:103230004FF0000252F10002E3FB01426442C2F18E
:10324000404E38BFAEF1010EA6FB04234FF0000242
:10325000E6FB0E32A2FB03464FF00004B61954F110
:103260000004E2FB0264A1FB06E6A4FB07E816EB00
:1032700008064FF0000858F10008E4FB01687642A8
:10328000C8F1405838BFA8F10108A2FB06E4A3FB2F
:1032900008E52D194FF0000454F10004E2FB085436
:1032A000A1FB05E6A7FB04E818EB06084FF00006B3
:1032B00056F10006E1FB048618F1200556F10006E0
:1032C000A809A8F11B08B10908F03F08B8F10A0FD6
:1032D00040EA86601CD901EB0C51BDE8F08100BFCB
:1032E000FCF5EEE8E2DDD8D3CFCBC7C3C0BDB9B69D
:1032F000B4B1AEACA9A7A5A3A19F9D9B9A989695A2
:103300009392908F8D8C8B89888786858483828128
:10331000A0FB006800FB01F208EB4208B8EB87282D
:1033200007D5341858EB0104D5D5401C51F10001E4
:10333000D1E7341A78EB0104CDD4401E71F10001BD
:10334000C9E75FEA4C0C5FEA9C5C0DD105D34FF0F6
:10335000000001F00041BDE8F081BDE8F04170B52A
:10336000FFF7C4FE6DDBFFBEBDE8F0414FF000008B
:10337000004970470000F87F10B591EA030F48BF7D
:1033800083F000433FF508AC841A71EB030C07D2BD
:1033900012198CF0004C43EB0C03001B61EB0C0189
:1033A000DFF8A4E14FEA1154A4EB135C1EEA430FCB
:1033B00018BF9EEA445F00F0B08023EA6E035242D9
:1033C00021EA0451C3EB6E0338BF5B1EDCF1200E13
:1033D00025D322FA0CFE10EB0E0043FA0CFE41EB53
:1033E0000E01CCF1200E03FA0EFE10EB0E0051F18F
:1033F0000001CCF1200E29D412FA0EF201EB045197
:10340000BDE8104058BF7047401C1CBFB2F1004FD0
:10341000704700280CBF491C20F00100704712EBD8
:10342000020E43EB030218BF4FF0010E4EEA4202B8
:10343000ACF1200CDCF11E0E54D943FA0CFE10EB5B
:103440000E0051F1FF31CCF11E0ED5D50EF1010E5B
:1034500012FA0EFE404141EB010101EB445C5FEAD0
:103460005C5C10D910EBDE7001EB045138BFBEF18B
:10347000004FBDE8104018BF704700280CBF491C22
:1034800020F00100704730D24FEAD42C11F5001122
:1034900024F400641BD0B1FA81F20B3AA41AA41EE2
:1034A000D2F12003914030FA03F31943904001EB2D
:1034B000CC71002C01EB0451BDE81040A8BF70474F
:1034C00001F1C0414FF0000001F000417047B0FA37
:1034D00080F310FA03F100D110BDE41A173C48053F
:1034E000C90AE4E701EB045110BD491001EB045196
:1034F000BDE810404FEA300002E04FF00001704795
:103500004A0008BF0042F8D0B2F5001F28BF70473C
:1035100001F000414FF0000070479EEA445F07D081
:1035200011EA5E0FBDE8104004BF00210020704783
:10353000BDE8104070B5FFF7D9FD00BF40DFF63E93
:1035400083F00041104670470000E0FF43004FEA5F
:10355000D30C4FEA3C0C43401FBF40070CF16051B5
:1035600013F0FE4F70471CF0006F03D100200CF0E9
:10357000004170470CF0004343EA507010B540EA38
:10358000CC0000F000FA00BF000000924FEA0001FA
:10359000FFF7FABD4FF000414FF00000A1F5002108
:1035A0007047000090EA010F48BF81F0004100F130
:1035B0004682421A3CBF801A89184FEAD0524FF017
:1035C0007F4C1CEA410FA2EBD15318BF9CEA026F5B
:1035D00000F03B804FF0004C4CEA00204CEA012107
:1035E00021FA03FC10EB0C0C1ED202F1FF325FEA51
:1035F0001C2040EBC25038BF70471CF07F0F4FEAD1
:10360000400C18BFBCF17F4F38BF7047C3F1200397
:10361000994008BF20F00100BCF17F4F38BF7047D0
:10362000A0F1C04000F0F5B94FEA3C00000A40EBC1
:10363000C25028BF1CF0FF0F4FEA400CE6D018BF65
:10364000BCF17F4F38BF7047EAE79CEA026F05D0B4
:1036500010EA5C0F08BF00F00040704710B500F0A2
:1036600092F900BF64FBBE3E4FF47F0C1CEAD012FF
:103670001EBF1CEAD11392EA0C0F93EA0C0F00F064
:10368000858090EA010F48BF42F4807240F4000C3C
:1036900041F400002CF07F4120F07F4000B58142D2
:1036A000A2EB03020FF2081CACEB504EC0F100007D
:1036B0009EF800E04FEA4E0E00FB0EFC38BF4900BA
:1036C0004FEA2C1C02F5FA020CFB0EF34FEACE1E59
:1036D0004FEA112C4FEAC1210EEB635E42EB22420E
:1036E0000EFB0CFC4FEA1C5300FB03114FEA112C9C
:1036F0004FEA01310EFB0CFC4FEADC4C00FB0C11D5
:10370000C14228BF09184CEB03335DF804EB10EB02
:10371000410143EBC250B2F57C0F38BF704729D549
:1037200012F0F00F1CBF00F1C04000F000407047E5
:10373000008182838485868788898B8C8D8E8F918A
:103740009293959697999A9C9D9FA0A2A3A5A7A8AE
:10375000AAACAEB0B2B3B5B7B9BCBEC0C2C5C7C9DA
:10376000CCCED1D4D7D9DCDFE2E6E9ECF0F3F7FA3E
:10377000FE0000004FEA400C0CF1807CBCF17E4F53
:1037800028BF7047B0F1C04000F043B990EA010F84
:103790000CEAD11348BF42F48072624538BF6345DA
:1037A00007D213F47F0F16D080EA010000F000402A
:1037B000704710B500F0E7F8097EFC3E00F005B850
:1037C00080EA010000F00040704780EA010000F04C
:1037D000004000F01EB912F47F0F04BF024870478A
:1037E00080EA010000F015B90000C07FC10DD1F1E1
:1037F0009E0206DB4FEA002343F0004323FA02F067
:103800007047004207D54FEA4001B1F1FE4F02D2A6
:103810004FF00000704710B500F0B5F849922480D1
:10382000002070476FEA20007047000010F0004150
:1038300048BF4042B0FA80F310FA03F2C3F19D038F
:103840000BD051EAC35101EB1220530638BF704729
:1038500000F1010008BF20F001007047B0FA80F3CA
:1038600010FA03F2C3F19D030AD0D90501EB12202F
:10387000530638BF704700F1010008BF20F0010077
:10388000704700004FF47F0C1CEAD0121EBF1CEAE8
:10389000D11392EA0C0F93EA0C0F00F0478090EAE4
:1038A000010F48BF42F480724FF0004C4CEA0020F8
:1038B0004CEA012102EB0302A0FB0113A2F5000276
:1038C000002918BF43F001035B0028BF4FEA330310
:1038D00042EB22425FEA132C4CEBC2502EBFBCEBF2
:1038E000436FB2F57C0F70474FEA036CBCF1004F99
:1038F00008BF20F00100B2F57C0F38BF70470BD530
:1039000082F0FF0212F5803FC8BF704700F1C0404F
:10391000D8BF00F00040704700F5000C5FEA4C0C87
:1039200048BF7047B0F1C04000F073B890EA010F93
:103930000CEAD11348BF42F48072624538BF634538
:1039400004D280EA010000F00040704710B500F09A
:103950001AF800BF8900013E00F007B800F009B86E
:103960005FEA410C5FEA1C6C08D080EA010000F0BD
:1039700050B85FEA400C5FEA1C6CF6D14FF0004093
:10398000A0F5800070470EF1020E2EF0030E5EF8D7
:10399000044B244204D44FEA4102B2F17F4F11D8C4
:1039A0004FEA4003B3F17F4F0CD80ED14FEAD07CE1
:1039B000B2F17F4F0CEB4C0C0CF1020C08BF4CEB3E
:1039C000D17C04E04FF0080C01E04FEAD17C0CEB15
:1039D0004C0324FA03F404F00704B4F1040C06D2F7
:1039E0000EEB840CBDE810404CF0010C6047DFE8A2
:1039F0000CF0070802024FF00040A0F5800010BD57
:103A00000846420018BFD2F1807288BF00F0004023
:103A100010BDFF2141EAD050C005704780F0004042
:103A200090EA010F7FF5C5AD81F0004100F007B8C5
:103A300090EA010F48BF81F000413FF5BAAD421A4C
:103A400004D882F00042A0EB020011444FEAD052A9
:103A50004FF07F4C1CEA410FA2EBD15318BF9CEAF8
:103A6000026F4AD04FF0004C4CEA00204CEA012192
:103A700021FA03FCB0EB0C0C0FD412F0FE0F36D081
:103A80005FEA4C001DD5001240EBC25038BF7047B2
:103A90001CF03F0F18BF70470BE0A2F101025FEA74
:103AA0001C2040EBC25038BF70471CF07F0F18BF7E
:103AB0007047C3F12003994014BF401E20F001005D
:103AC000704780084FEA122308BF7047B0FA80FCA5
:103AD000A2EB0C02CCF1280C60FA0CF093EA122F46
:103AE00004BF00EBC25070474FEAC3707047130A1F
:103AF0005FEADC1008BF7047F6E79CEA026F04D06B
:103B000010EA5C0F08BF0020704710B5FFF73BFFBD
:103B100040DFF63E81F000407047FCF703BD0CF03B
:103B20000F03092B08BF082000F059800A2B0BD087
:103B3000082B18BF704708BF1CF0400F0AD04FF089
:103B400000004FF0000170471CF0400F18BF4FF00D
:103B5000004070471CF0100F08D020F0704300F0B8
:103B60007F4242EAD3014FEA4370704700F0604061
:103B700021F07F4242EA000201F07F4040EA727089
:103B800070474FF0FF0C4CF4E06C1CEA11531CBF63
:103B90009CEA030C9445C2BFDA4201EB0251704724
:103BA000002B0DD0BCF1000F0FD0002A01F0004116
:103BB000A4BF41F0E04141F07F614FF00000704749
:103BC00001F000414FF00000704750EA01334FF020
:103BD0009B0C18BF4CF0806C7FF47EA870471CF4DF
:103BE000801F11D01CF4E02F03D06FEACC314900C4
:103BF00070474FF04050EFF3008222F0704242EAEB
:103C0000000282F3008870474FF000007047000008
:103C1000555555555555C53F7D6FEB0312D6D4BF4D
:103C20005544880E55C1C93F3B8F68B52882A4BF53
:103C300088B20175E0EF493F09F7FD0DE13D023F14
:103C40004B2D8A1C273A03C0C88A599CE52A00409C
:103C500059018D1B6C06E6BF82922EB1C5B8B33FE9
:103C60004FBB610567ACDD3F182D4454FB21E93F94
:103C70009BF681D20B73EF3F182D4454FB21F93F83
:103C8000E2652F227F2B7A3C075C143326A6813C09
:103C9000BDCBF07A8807703C075C143326A6913CB4
:103CA000C4EB98999999C9BF711623FEC671BCBF20
:103CB0006D9A74AFF2B0B3BF9AFDDE522DDEADBF88
:103CC0002F6C6A2C44B4A2BF0D5555555555D53FA0
:103CD000FF8300922449C23F6E204CC5CD45B73FBB
:103CE000513DD0A0660DB13FEB0D76244B7BA93F33
:103CF00011DA22E33AAD903F00000000000000001E
:103D000002400000000000A000000000054000008C
:103D1000000000C8000000000C4000000000409CB3
:103D200000000000194000000020BCBE00000000A0
:103D300034400000BFC91B8E00000004B5400000E5
:103D4000504BCFD06607E2CF010000006C4100006D
:103D50003E8251AADFEEA73401000000D9420000E4
:103D6000DCB5A0E23A301F97FFFFFFFFB44500002B
:103D7000FD25A0C8E9A3C14FFFFFFFFFFF3F0000E3
:103D80000000008000000000FF3F000000000080F5
:103D900000000000D03D000800000020700000007E
:103DA00028010008403E000870000020280700009D
:103DB000440100081C00000043000000F8FFFFFF62
:103DC0000C0000000E0000000F0000002E0000009C
:103DD0000000000000000000000000000000803F24
:103DE00000000000000000000000000000000000D3
:103DF00000000000000000000000000000000000C3
:103E000000000000000000000000000000000000B2
:103E100000000000000000000000000000000000A2
:103E20000000000000000000000000000000000092
:103E30000000000000000000000000000000000082
:04000005080000ED02
:00000001FF
